{
  "contractName": "DBT",
  "abi": [
    {
      "inputs": [],
      "stateMutability": "nonpayable",
      "type": "constructor"
    },
    {
      "anonymous": false,
      "inputs": [
        {
          "indexed": true,
          "internalType": "address",
          "name": "sender",
          "type": "address"
        },
        {
          "indexed": true,
          "internalType": "address",
          "name": "beneficiary",
          "type": "address"
        },
        {
          "indexed": false,
          "internalType": "uint256",
          "name": "amount",
          "type": "uint256"
        }
      ],
      "name": "Transfer",
      "type": "event"
    },
    {
      "inputs": [
        {
          "internalType": "address",
          "name": "",
          "type": "address"
        }
      ],
      "name": "beneficiaries",
      "outputs": [
        {
          "internalType": "bool",
          "name": "",
          "type": "bool"
        }
      ],
      "stateMutability": "view",
      "type": "function",
      "constant": true
    },
    {
      "inputs": [
        {
          "internalType": "address",
          "name": "",
          "type": "address"
        }
      ],
      "name": "beneficiaryBalances",
      "outputs": [
        {
          "internalType": "uint256",
          "name": "",
          "type": "uint256"
        }
      ],
      "stateMutability": "view",
      "type": "function",
      "constant": true
    },
    {
      "inputs": [],
      "name": "government",
      "outputs": [
        {
          "internalType": "address",
          "name": "",
          "type": "address"
        }
      ],
      "stateMutability": "view",
      "type": "function",
      "constant": true
    },
    {
      "inputs": [
        {
          "internalType": "address",
          "name": "beneficiary",
          "type": "address"
        }
      ],
      "name": "addBeneficiary",
      "outputs": [],
      "stateMutability": "nonpayable",
      "type": "function"
    },
    {
      "inputs": [
        {
          "internalType": "address",
          "name": "beneficiary",
          "type": "address"
        },
        {
          "internalType": "uint256",
          "name": "amount",
          "type": "uint256"
        }
      ],
      "name": "transferFunds",
      "outputs": [],
      "stateMutability": "nonpayable",
      "type": "function"
    },
    {
      "inputs": [
        {
          "internalType": "address",
          "name": "beneficiary",
          "type": "address"
        }
      ],
      "name": "checkBeneficiary",
      "outputs": [
        {
          "internalType": "bool",
          "name": "",
          "type": "bool"
        }
      ],
      "stateMutability": "view",
      "type": "function",
      "constant": true
    },
    {
      "inputs": [
        {
          "internalType": "address",
          "name": "beneficiary",
          "type": "address"
        }
      ],
      "name": "getBeneficiaryBalance",
      "outputs": [
        {
          "internalType": "uint256",
          "name": "",
          "type": "uint256"
        }
      ],
      "stateMutability": "view",
      "type": "function",
      "constant": true
    }
  ],
  "bytecode": "0x608060405234801561001057600080fd5b50336000806101000a81548173ffffffffffffffffffffffffffffffffffffffff021916908373ffffffffffffffffffffffffffffffffffffffff1602179055506109ab806100606000396000f3fe608060405234801561001057600080fd5b506004361061007d5760003560e01c80635664865a1161005b5780635664865a146101005780635926651d14610130578063781e4e4c1461014c578063990dc9db1461017c5761007d565b8063015677391461008257806307bcb6ef146100b25780632672f526146100e2575b600080fd5b61009c60048036038101906100979190610644565b610198565b6040516100a9919061068c565b60405180910390f35b6100cc60048036038101906100c79190610644565b6101b8565b6040516100d991906106c0565b60405180910390f35b6100ea61028d565b6040516100f791906106ea565b60405180910390f35b61011a60048036038101906101159190610644565b6102b1565b60405161012791906106c0565b60405180910390f35b61014a60048036038101906101459190610644565b6102c9565b005b61016660048036038101906101619190610644565b6103b2565b604051610173919061068c565b60405180910390f35b61019660048036038101906101919190610731565b610408565b005b60026020528060005260406000206000915054906101000a900460ff1681565b6000600260008373ffffffffffffffffffffffffffffffffffffffff1673ffffffffffffffffffffffffffffffffffffffff16815260200190815260200160002060009054906101000a900460ff16610246576040517f08c379a000000000000000000000000000000000000000000000000000000000815260040161023d906107ce565b60405180910390fd5b600160008373ffffffffffffffffffffffffffffffffffffffff1673ffffffffffffffffffffffffffffffffffffffff168152602001908152602001600020549050919050565b60008054906101000a900473ffffffffffffffffffffffffffffffffffffffff1681565b60016020528060005260406000206000915090505481565b60008054906101000a900473ffffffffffffffffffffffffffffffffffffffff1673ffffffffffffffffffffffffffffffffffffffff163373ffffffffffffffffffffffffffffffffffffffff1614610357576040517f08c379a000000000000000000000000000000000000000000000000000000000815260040161034e90610860565b60405180910390fd5b6001600260008373ffffffffffffffffffffffffffffffffffffffff1673ffffffffffffffffffffffffffffffffffffffff16815260200190815260200160002060006101000a81548160ff02191690831515021790555050565b6000600260008373ffffffffffffffffffffffffffffffffffffffff1673ffffffffffffffffffffffffffffffffffffffff16815260200190815260200160002060009054906101000a900460ff169050919050565b60008054906101000a900473ffffffffffffffffffffffffffffffffffffffff1673ffffffffffffffffffffffffffffffffffffffff163373ffffffffffffffffffffffffffffffffffffffff1614610496576040517f08c379a000000000000000000000000000000000000000000000000000000000815260040161048d906108f2565b60405180910390fd5b600260008373ffffffffffffffffffffffffffffffffffffffff1673ffffffffffffffffffffffffffffffffffffffff16815260200190815260200160002060009054906101000a900460ff16610522576040517f08c379a0000000000000000000000000000000000000000000000000000000008152600401610519906107ce565b60405180910390fd5b80600160008473ffffffffffffffffffffffffffffffffffffffff1673ffffffffffffffffffffffffffffffffffffffff16815260200190815260200160002060008282546105719190610941565b925050819055508173ffffffffffffffffffffffffffffffffffffffff163373ffffffffffffffffffffffffffffffffffffffff167fddf252ad1be2c89b69c2b068fc378daa952ba7f163c4a11628f55a4df523b3ef836040516105d591906106c0565b60405180910390a35050565b600080fd5b600073ffffffffffffffffffffffffffffffffffffffff82169050919050565b6000610611826105e6565b9050919050565b61062181610606565b811461062c57600080fd5b50565b60008135905061063e81610618565b92915050565b60006020828403121561065a576106596105e1565b5b60006106688482850161062f565b91505092915050565b60008115159050919050565b61068681610671565b82525050565b60006020820190506106a1600083018461067d565b92915050565b6000819050919050565b6106ba816106a7565b82525050565b60006020820190506106d560008301846106b1565b92915050565b6106e481610606565b82525050565b60006020820190506106ff60008301846106db565b92915050565b61070e816106a7565b811461071957600080fd5b50565b60008135905061072b81610705565b92915050565b60008060408385031215610748576107476105e1565b5b60006107568582860161062f565b92505060206107678582860161071c565b9150509250929050565b600082825260208201905092915050565b7f42656e6566696369617279206e6f742072656769737465726564000000000000600082015250565b60006107b8601a83610771565b91506107c382610782565b602082019050919050565b600060208201905081810360008301526107e7816107ab565b9050919050565b7f4f6e6c7920676f7665726e6d656e742063616e206164642062656e656669636960008201527f6172696573000000000000000000000000000000000000000000000000000000602082015250565b600061084a602583610771565b9150610855826107ee565b604082019050919050565b600060208201905081810360008301526108798161083d565b9050919050565b7f4f6e6c7920676f7665726e6d656e742063616e207472616e736665722066756e60008201527f6473000000000000000000000000000000000000000000000000000000000000602082015250565b60006108dc602283610771565b91506108e782610880565b604082019050919050565b6000602082019050818103600083015261090b816108cf565b9050919050565b7f4e487b7100000000000000000000000000000000000000000000000000000000600052601160045260246000fd5b600061094c826106a7565b9150610957836106a7565b925082820190508082111561096f5761096e610912565b5b9291505056fea264697066735822122064fb9182d062d4d0eec40e51582dad7f3fac8a018e82231556a34f25405c037e64736f6c63430008130033",
  "immutableReferences": {},
  "source": "pragma solidity ^0.8.0;\r\n\r\ncontract DBT {\r\n\r\n    constructor() {\r\n        government = msg.sender;\r\n    }\r\n    \r\n    address public government;\r\n    mapping(address => uint256) public beneficiaryBalances;\r\n    mapping(address => bool) public beneficiaries;\r\n\r\n    event Transfer(address indexed sender, address indexed beneficiary, uint256 amount);\r\n    \r\n    function addBeneficiary(address beneficiary) public {\r\n        require(msg.sender == government, \"Only government can add beneficiaries\");\r\n        beneficiaries[beneficiary] = true;\r\n    }\r\n\r\n    function transferFunds(address beneficiary, uint256 amount) public {\r\n        require(msg.sender == government, \"Only government can transfer funds\");\r\n        require(beneficiaries[beneficiary], \"Beneficiary not registered\");\r\n        beneficiaryBalances[beneficiary] += amount;\r\n        emit Transfer(msg.sender, beneficiary, amount);\r\n    }\r\n    \r\n    function checkBeneficiary(address beneficiary) public view returns (bool) {\r\n        return beneficiaries[beneficiary];\r\n    }\r\n    \r\n    function getBeneficiaryBalance(address beneficiary) public view returns (uint256) {\r\n        require(beneficiaries[beneficiary], \"Beneficiary not registered\");\r\n        return beneficiaryBalances[beneficiary];\r\n    }\r\n\r\n}\r\n",
  "sourcePath": "D:\\Blockchain\\dbt-app - Copy\\contracts\\Counter.sol",
  "compiler": {
    "name": "solc",
    "version": "0.8.19+commit.7dd6d404.Emscripten.clang"
  },
  "schemaVersion": "3.4.13",
  "updatedAt": "2023-03-31T11:22:37.598Z",
  "networkType": "ethereum",
  "devdoc": {
    "kind": "dev",
    "methods": {},
    "version": 1
  },
  "userdoc": {
    "kind": "user",
    "methods": {},
    "version": 1
  }
}